{
	"_format": "hh-sol-artifact-1",
	"contractName": "Presale",
	"sourceName": "contracts/Presale.sol",
	"abi": [
		{
			"anonymous": false,
			"inputs": [
				{
					"indexed": false,
					"internalType": "uint8",
					"name": "version",
					"type": "uint8"
				}
			],
			"name": "Initialized",
			"type": "event"
		},
		{
			"anonymous": false,
			"inputs": [
				{
					"indexed": true,
					"internalType": "address",
					"name": "previousOwner",
					"type": "address"
				},
				{
					"indexed": true,
					"internalType": "address",
					"name": "newOwner",
					"type": "address"
				}
			],
			"name": "OwnershipTransferred",
			"type": "event"
		},
		{
			"anonymous": false,
			"inputs": [
				{
					"indexed": false,
					"internalType": "address",
					"name": "account",
					"type": "address"
				}
			],
			"name": "Paused",
			"type": "event"
		},
		{
			"anonymous": false,
			"inputs": [
				{
					"indexed": false,
					"internalType": "uint256",
					"name": "stage",
					"type": "uint256"
				},
				{
					"indexed": false,
					"internalType": "uint256",
					"name": "price",
					"type": "uint256"
				}
			],
			"name": "PriceUpdated",
			"type": "event"
		},
		{
			"anonymous": false,
			"inputs": [
				{
					"indexed": true,
					"internalType": "address",
					"name": "buyer",
					"type": "address"
				},
				{
					"indexed": false,
					"internalType": "uint256",
					"name": "amount",
					"type": "uint256"
				},
				{
					"indexed": false,
					"internalType": "uint256",
					"name": "timestamp",
					"type": "uint256"
				}
			],
			"name": "TokenBought",
			"type": "event"
		},
		{
			"anonymous": false,
			"inputs": [
				{
					"indexed": true,
					"internalType": "address",
					"name": "claimer",
					"type": "address"
				},
				{
					"indexed": false,
					"internalType": "uint256",
					"name": "amount",
					"type": "uint256"
				},
				{
					"indexed": false,
					"internalType": "uint256",
					"name": "timestamp",
					"type": "uint256"
				}
			],
			"name": "TokensClaimed",
			"type": "event"
		},
		{
			"anonymous": false,
			"inputs": [
				{
					"indexed": false,
					"internalType": "address",
					"name": "account",
					"type": "address"
				}
			],
			"name": "Unpaused",
			"type": "event"
		},
		{
			"anonymous": false,
			"inputs": [
				{
					"indexed": false,
					"internalType": "bool",
					"name": "claimActive",
					"type": "bool"
				}
			],
			"name": "claimStart",
			"type": "event"
		},
		{
			"inputs": [
				{
					"internalType": "uint256",
					"name": "_nativeCoinAmount",
					"type": "uint256"
				}
			],
			"name": "",
			"outputs": [
				{
					"internalType": "uint256",
					"name": "",
					"type": "uint256"
				}
			],
			"stateMutability": "view",
			"type": "function"
		},
		{
			"inputs": [
				{
					"internalType": "uint256",
					"name": "_usdtAmount",
					"type": "uint256"
				}
			],
			"name": "TokenToTokenHelper",
			"outputs": [
				{
					"internalType": "uint256",
					"name": "",
					"type": "uint256"
				}
			],
			"stateMutability": "view",
			"type": "function"
		},
		{
			"inputs": [],
			"name": "USDTInterface",
			"outputs": [
				{
					"internalType": "contract IERC20Upgradeable",
					"name": "",
					"type": "address"
				}
			],
			"stateMutability": "view",
			"type": "function"
		},
		{
			"inputs": [
				{
					"internalType": "uint256",
					"name": "_tokenAmount",
					"type": "uint256"
				}
			],
			"name": "buyTokenWithNative",
			"outputs": [],
			"stateMutability": "payable",
			"type": "function"
		},
		{
			"inputs": [
				{
					"internalType": "uint256",
					"name": "_tokenAmount",
					"type": "uint256"
				}
			],
			"name": "buyTokenWithToken",
			"outputs": [],
			"stateMutability": "nonpayable",
			"type": "function"
		},
		{
			"inputs": [
				{
					"internalType": "uint256",
					"name": "_tokenAmount",
					"type": "uint256"
				}
			],
			"name": "calculateNativeCost",
			"outputs": [
				{
					"internalType": "uint256",
					"name": "",
					"type": "uint256"
				}
			],
			"stateMutability": "view",
			"type": "function"
		},
		{
			"inputs": [
				{
					"internalType": "uint256",
					"name": "_tokenAmount",
					"type": "uint256"
				}
			],
			"name": "calculateTokenCost",
			"outputs": [
				{
					"internalType": "uint256",
					"name": "",
					"type": "uint256"
				}
			],
			"stateMutability": "view",
			"type": "function"
		},
		{
			"inputs": [
				{
					"internalType": "uint256",
					"name": "quarter",
					"type": "uint256"
				},
				{
					"internalType": "uint256",
					"name": "_percentage",
					"type": "uint256"
				}
			],
			"name": "changeClaimPercentages",
			"outputs": [],
			"stateMutability": "nonpayable",
			"type": "function"
		},
		{
			"inputs": [
				{
					"internalType": "uint256",
					"name": "_stage",
					"type": "uint256"
				},
				{
					"internalType": "uint256",
					"name": "_price",
					"type": "uint256"
				}
			],
			"name": "changePricePerStage",
			"outputs": [],
			"stateMutability": "nonpayable",
			"type": "function"
		},
		{
			"inputs": [],
			"name": "claimActive",
			"outputs": [
				{
					"internalType": "bool",
					"name": "",
					"type": "bool"
				}
			],
			"stateMutability": "view",
			"type": "function"
		},
		{
			"inputs": [
				{
					"internalType": "uint256",
					"name": "",
					"type": "uint256"
				}
			],
			"name": "claimPercentages",
			"outputs": [
				{
					"internalType": "uint256",
					"name": "",
					"type": "uint256"
				}
			],
			"stateMutability": "view",
			"type": "function"
		},
		{
			"inputs": [],
			"name": "claimTokens",
			"outputs": [],
			"stateMutability": "nonpayable",
			"type": "function"
		},
		{
			"inputs": [],
			"name": "getAvailableTokensInStage",
			"outputs": [
				{
					"internalType": "uint256",
					"name": "",
					"type": "uint256"
				}
			],
			"stateMutability": "view",
			"type": "function"
		},
		{
			"inputs": [
				{
					"internalType": "address",
					"name": "_usdt",
					"type": "address"
				},
				{
					"internalType": "address",
					"name": "_oracle",
					"type": "address"
				}
			],
			"name": "initialize",
			"outputs": [],
			"stateMutability": "nonpayable",
			"type": "function"
		},
		{
			"inputs": [],
			"name": "owner",
			"outputs": [
				{
					"internalType": "address",
					"name": "",
					"type": "address"
				}
			],
			"stateMutability": "view",
			"type": "function"
		},
		{
			"inputs": [],
			"name": "pauseContract",
			"outputs": [],
			"stateMutability": "nonpayable",
			"type": "function"
		},
		{
			"inputs": [],
			"name": "paused",
			"outputs": [
				{
					"internalType": "bool",
					"name": "",
					"type": "bool"
				}
			],
			"stateMutability": "view",
			"type": "function"
		},
		{
			"inputs": [],
			"name": "priceFeed",
			"outputs": [
				{
					"internalType": "contract Aggregator",
					"name": "",
					"type": "address"
				}
			],
			"stateMutability": "view",
			"type": "function"
		},
		{
			"inputs": [
				{
					"internalType": "uint256",
					"name": "",
					"type": "uint256"
				}
			],
			"name": "pricePerStage",
			"outputs": [
				{
					"internalType": "uint256",
					"name": "",
					"type": "uint256"
				}
			],
			"stateMutability": "view",
			"type": "function"
		},
		{
			"inputs": [
				{
					"internalType": "address",
					"name": "",
					"type": "address"
				}
			],
			"name": "purchaseTimes",
			"outputs": [
				{
					"internalType": "uint256",
					"name": "",
					"type": "uint256"
				}
			],
			"stateMutability": "view",
			"type": "function"
		},
		{
			"inputs": [],
			"name": "renounceOwnership",
			"outputs": [],
			"stateMutability": "nonpayable",
			"type": "function"
		},
		{
			"inputs": [],
			"name": "saleTokenAddress",
			"outputs": [
				{
					"internalType": "address",
					"name": "",
					"type": "address"
				}
			],
			"stateMutability": "view",
			"type": "function"
		},
		{
			"inputs": [
				{
					"internalType": "uint256",
					"name": "_tokenAmount",
					"type": "uint256"
				},
				{
					"internalType": "address",
					"name": "_to",
					"type": "address"
				}
			],
			"name": "sendPublicTokenToLaunchPad",
			"outputs": [],
			"stateMutability": "nonpayable",
			"type": "function"
		},
		{
			"inputs": [
				{
					"internalType": "address",
					"name": "_fundsAddress",
					"type": "address"
				}
			],
			"name": "setFundsAddress",
			"outputs": [],
			"stateMutability": "nonpayable",
			"type": "function"
		},
		{
			"inputs": [
				{
					"internalType": "address",
					"name": "_tokenHolder",
					"type": "address"
				}
			],
			"name": "setTokenHolder",
			"outputs": [],
			"stateMutability": "nonpayable",
			"type": "function"
		},
		{
			"inputs": [
				{
					"internalType": "uint256",
					"name": "_stage",
					"type": "uint256"
				},
				{
					"internalType": "uint256",
					"name": "_tokenAmount",
					"type": "uint256"
				}
			],
			"name": "setTokenPerStage",
			"outputs": [],
			"stateMutability": "nonpayable",
			"type": "function"
		},
		{
			"inputs": [],
			"name": "stage",
			"outputs": [
				{
					"internalType": "enum Presale.Stages",
					"name": "",
					"type": "uint8"
				}
			],
			"stateMutability": "view",
			"type": "function"
		},
		{
			"inputs": [],
			"name": "startClaim",
			"outputs": [],
			"stateMutability": "nonpayable",
			"type": "function"
		},
		{
			"inputs": [],
			"name": "switchStage",
			"outputs": [],
			"stateMutability": "nonpayable",
			"type": "function"
		},
		{
			"inputs": [
				{
					"internalType": "address",
					"name": "",
					"type": "address"
				}
			],
			"name": "tokensBought",
			"outputs": [
				{
					"internalType": "uint256",
					"name": "",
					"type": "uint256"
				}
			],
			"stateMutability": "view",
			"type": "function"
		},
		{
			"inputs": [
				{
					"internalType": "address",
					"name": "",
					"type": "address"
				}
			],
			"name": "tokensClaimed",
			"outputs": [
				{
					"internalType": "uint256",
					"name": "",
					"type": "uint256"
				}
			],
			"stateMutability": "view",
			"type": "function"
		},
		{
			"inputs": [
				{
					"internalType": "uint256",
					"name": "",
					"type": "uint256"
				}
			],
			"name": "tokensInStages",
			"outputs": [
				{
					"internalType": "uint256",
					"name": "",
					"type": "uint256"
				}
			],
			"stateMutability": "view",
			"type": "function"
		},
		{
			"inputs": [
				{
					"internalType": "uint256",
					"name": "",
					"type": "uint256"
				}
			],
			"name": "tokensSoldPerStage",
			"outputs": [
				{
					"internalType": "uint256",
					"name": "",
					"type": "uint256"
				}
			],
			"stateMutability": "view",
			"type": "function"
		},
		{
			"inputs": [
				{
					"internalType": "address",
					"name": "newOwner",
					"type": "address"
				}
			],
			"name": "transferOwnership",
			"outputs": [],
			"stateMutability": "nonpayable",
			"type": "function"
		},
		{
			"inputs": [],
			"name": "unpauseContract",
			"outputs": [],
			"stateMutability": "nonpayable",
			"type": "function"
		}
	],
	"bytecode": "0x608060405234801561001057600080fd5b5061411b806100206000396000f3fe6080604052600436106102045760003560e01c80637f19abe011610118578063cc58cede116100a0578063ecbfc0771161006f578063ecbfc07714610767578063f29d2f281461077e578063f2fde38b146107a7578063f38beded146107d0578063f597573f146107ec57610204565b8063cc58cede146106ad578063d4a6a2fd146106d6578063d81448ea14610701578063dd97a6f11461073e57610204565b8063a14413a2116100e7578063a14413a2146105da578063af82d98314610603578063b33712c51461062e578063ba0ed3df14610645578063c040e6b81461068257610204565b80637f19abe01461051e5780638ae3a501146105475780638da5cb5b14610572578063992678b51461059d57610204565b8063485cc9551161019b578063624601b61161016a578063624601b614610439578063715018a614610476578063741bef1a1461048d5780637b731005146104b85780637cba3303146104f557610204565b8063485cc9551461039157806348c54b9d146103ba5780634c5cdfdf146103d15780635c975abb1461040e57610204565b8063264d7797116101d7578063264d7797146102d757806341dd1aa814610314578063439766ce1461033d578063441222441461035457610204565b8063062558ee1461020957806309214a07146102465780630da1701c1461025d57806315de26f01461029a575b600080fd5b34801561021557600080fd5b50610230600480360381019061022b9190612fa2565b610817565b60405161023d9190612fde565b60405180910390f35b34801561025257600080fd5b5061025b61087d565b005b34801561026957600080fd5b50610284600480360381019061027f9190612fa2565b610ab1565b6040516102919190612fde565b60405180910390f35b3480156102a657600080fd5b506102c160048036038101906102bc9190613057565b610acc565b6040516102ce9190612fde565b60405180910390f35b3480156102e357600080fd5b506102fe60048036038101906102f99190613057565b610ae4565b60405161030b9190612fde565b60405180910390f35b34801561032057600080fd5b5061033b60048036038101906103369190613084565b610afc565b005b34801561034957600080fd5b50610352610c0d565b005b34801561036057600080fd5b5061037b60048036038101906103769190612fa2565b610c1f565b6040516103889190612fde565b60405180910390f35b34801561039d57600080fd5b506103b860048036038101906103b391906130c4565b610c3a565b005b3480156103c657600080fd5b506103cf611146565b005b3480156103dd57600080fd5b506103f860048036038101906103f39190612fa2565b61187a565b6040516104059190612fde565b60405180910390f35b34801561041a57600080fd5b50610423611892565b604051610430919061311f565b60405180910390f35b34801561044557600080fd5b50610460600480360381019061045b9190613057565b6118a9565b60405161046d9190612fde565b60405180910390f35b34801561048257600080fd5b5061048b6118c1565b005b34801561049957600080fd5b506104a26118d5565b6040516104af9190613199565b60405180910390f35b3480156104c457600080fd5b506104df60048036038101906104da9190612fa2565b6118fb565b6040516104ec9190612fde565b60405180910390f35b34801561050157600080fd5b5061051c600480360381019061051791906131b4565b611961565b005b34801561052a57600080fd5b5061054560048036038101906105409190613057565b611987565b005b34801561055357600080fd5b5061055c611a66565b6040516105699190612fde565b60405180910390f35b34801561057e57600080fd5b50610587611ae3565b6040516105949190613203565b60405180910390f35b3480156105a957600080fd5b506105c460048036038101906105bf9190612fa2565b611b0d565b6040516105d19190612fde565b60405180910390f35b3480156105e657600080fd5b5061060160048036038101906105fc91906131b4565b611c2b565b005b34801561060f57600080fd5b50610618611c8a565b6040516106259190613203565b60405180910390f35b34801561063a57600080fd5b50610643611cb0565b005b34801561065157600080fd5b5061066c60048036038101906106679190612fa2565b611cc2565b6040516106799190612fde565b60405180910390f35b34801561068e57600080fd5b50610697611cdd565b6040516106a49190613295565b60405180910390f35b3480156106b957600080fd5b506106d460048036038101906106cf9190612fa2565b611cf0565b005b3480156106e257600080fd5b506106eb6121a6565b6040516106f8919061311f565b60405180910390f35b34801561070d57600080fd5b5061072860048036038101906107239190612fa2565b6121b9565b6040516107359190612fde565b60405180910390f35b34801561074a57600080fd5b50610765600480360381019061076091906131b4565b6122d7565b005b34801561077357600080fd5b5061077c612341565b005b34801561078a57600080fd5b506107a560048036038101906107a09190613057565b6123ac565b005b3480156107b357600080fd5b506107ce60048036038101906107c99190613057565b612469565b005b6107ea60048036038101906107e59190612fa2565b6124ec565b005b3480156107f857600080fd5b506108016128f9565b60405161080e91906132d1565b60405180910390f35b60008060d060dd60159054906101000a900460ff16600381111561083e5761083d61321e565b5b6004811061084f5761084e6132ec565b5b0154905060008164e8d4a5100085610867919061334a565b61087191906133bb565b90508092505050919050565b61088561291f565b600060dd60159054906101000a900460ff1660038111156108a9576108a861321e565b5b101580156108d95750600a60dd60159054906101000a900460ff1660038111156108d6576108d561321e565b5b11155b610918576040517f08c379a000000000000000000000000000000000000000000000000000000000815260040161090f90613449565b60405180910390fd5b600060dd60159054906101000a900460ff16600381111561093c5761093b61321e565b5b1015801561096c5750600960dd60159054906101000a900460ff1660038111156109695761096861321e565b5b11155b15610a4657600060db600060dd60159054906101000a900460ff1660038111156109995761099861321e565b5b81526020019081526020016000205460cc60dd60159054906101000a900460ff1660038111156109cc576109cb61321e565b5b600481106109dd576109dc6132ec565b5b01546109e99190613469565b90508060cc600160dd60159054906101000a900460ff166003811115610a1257610a1161321e565b5b610a1c919061349d565b60048110610a2d57610a2c6132ec565b5b016000828254610a3d919061349d565b92505081905550505b600160dd60159054906101000a900460ff166003811115610a6a57610a6961321e565b5b610a74919061349d565b6003811115610a8657610a8561321e565b5b60dd60156101000a81548160ff02191690836003811115610aaa57610aa961321e565b5b0217905550565b60cc8160048110610ac157600080fd5b016000915090505481565b60d96020528060005260406000206000915090505481565b60d86020528060005260406000206000915090505481565b610b0461291f565b60cb60009054906101000a900473ffffffffffffffffffffffffffffffffffffffff1673ffffffffffffffffffffffffffffffffffffffff166323b872dd60ca60009054906101000a900473ffffffffffffffffffffffffffffffffffffffff1683670de0b6b3a764000086610b7a919061334a565b6040518463ffffffff1660e01b8152600401610b98939291906134d1565b6020604051808303816000875af1158015610bb7573d6000803e3d6000fd5b505050506040513d601f19601f82011682018060405250810190610bdb9190613534565b508160cc600360048110610bf257610bf16132ec565b5b016000828254610c029190613469565b925050819055505050565b610c1561291f565b610c1d61299d565b565b60d08160048110610c2f57600080fd5b016000915090505481565b60008060019054906101000a900460ff16159050808015610c6b5750600160008054906101000a900460ff1660ff16105b80610c985750610c7a30612a00565b158015610c975750600160008054906101000a900460ff1660ff16145b5b610cd7576040517f08c379a0000000000000000000000000000000000000000000000000000000008152600401610cce906135d3565b60405180910390fd5b60016000806101000a81548160ff021916908360ff1602179055508015610d14576001600060016101000a81548160ff0219169083151502179055505b82600073ffffffffffffffffffffffffffffffffffffffff168173ffffffffffffffffffffffffffffffffffffffff1603610d84576040517f08c379a0000000000000000000000000000000000000000000000000000000008152600401610d7b9061363f565b60405180910390fd5b82600073ffffffffffffffffffffffffffffffffffffffff168173ffffffffffffffffffffffffffffffffffffffff1603610df4576040517f08c379a0000000000000000000000000000000000000000000000000000000008152600401610deb9061363f565b60405180910390fd5b610dfc612a23565b610e04612a7c565b610e0c612ad5565b8460dc60006101000a81548173ffffffffffffffffffffffffffffffffffffffff021916908373ffffffffffffffffffffffffffffffffffffffff1602179055508360dd60006101000a81548173ffffffffffffffffffffffffffffffffffffffff021916908373ffffffffffffffffffffffffffffffffffffffff16021790555073c493fd92b08579682935520e9779ee71cbd29a0960ca60006101000a81548173ffffffffffffffffffffffffffffffffffffffff021916908373ffffffffffffffffffffffffffffffffffffffff16021790555073c35a5df1bc74c7e96afa6e047890f4645936974360c960006101000a81548173ffffffffffffffffffffffffffffffffffffffff021916908373ffffffffffffffffffffffffffffffffffffffff160217905550600060dd60146101000a81548160ff021916908315150217905550734c2e29dbc437c4b781963e5b2b393b1d4ea64b1960cb60006101000a81548173ffffffffffffffffffffffffffffffffffffffff021916908373ffffffffffffffffffffffffffffffffffffffff160217905550600060dd60156101000a81548160ff02191690836003811115610fce57610fcd61321e565b5b02179055506040518060800160405280624c4b4063ffffffff168152602001624c4b4063ffffffff168152602001624c4b4063ffffffff16815260200163017d784063ffffffff1681525060cc906004611029929190612e71565b5060405180608001604052806702c68af0bb14000067ffffffffffffffff16815260200167058d15e17628000067ffffffffffffffff168152602001670853a0d2313c000067ffffffffffffffff168152602001670b1a2bc2ec50000067ffffffffffffffff1681525060d09060046110a3929190612eb9565b506040518060800160405280601960ff168152602001601960ff168152602001601960ff168152602001601960ff1681525060d49060046110e5929190612f05565b50505080156111415760008060016101000a81548160ff0219169083151502179055507f7f26b83ff96e1f2b6a682f133852f6798a09c465da95921460cefb3847402498600160405161113891906136a7565b60405180910390a15b505050565b6001151560dd60149054906101000a900460ff1615151461119c576040517f08c379a00000000000000000000000000000000000000000000000000000000081526004016111939061370e565b60405180910390fd5b6111a4612b2e565b3360034262278d00826111b7919061334a565b60d960008573ffffffffffffffffffffffffffffffffffffffff1673ffffffffffffffffffffffffffffffffffffffff16815260200190815260200160002054611201919061349d565b1115611242576040517f08c379a00000000000000000000000000000000000000000000000000000000081526004016112399061377a565b60405180910390fd5b600060d860003373ffffffffffffffffffffffffffffffffffffffff1673ffffffffffffffffffffffffffffffffffffffff16815260200190815260200160002054116112c4576040517f08c379a00000000000000000000000000000000000000000000000000000000081526004016112bb906137e6565b60405180910390fd5b60d860003373ffffffffffffffffffffffffffffffffffffffff1673ffffffffffffffffffffffffffffffffffffffff1681526020019081526020016000205460da60003373ffffffffffffffffffffffffffffffffffffffff1673ffffffffffffffffffffffffffffffffffffffff1681526020019081526020016000205410611384576040517f08c379a000000000000000000000000000000000000000000000000000000000815260040161137b90613878565b60405180910390fd5b6000804290506276a70060d960003373ffffffffffffffffffffffffffffffffffffffff1673ffffffffffffffffffffffffffffffffffffffff168152602001908152602001600020546113d8919061349d565b811061145257606460d46000600481106113f5576113f46132ec565b5b015460d860003373ffffffffffffffffffffffffffffffffffffffff1673ffffffffffffffffffffffffffffffffffffffff16815260200190815260200160002054611441919061334a565b61144b91906133bb565b91506116ab565b62ed4e0060d960003373ffffffffffffffffffffffffffffffffffffffff1673ffffffffffffffffffffffffffffffffffffffff168152602001908152602001600020546114a0919061349d565b811061151a57606460d46001600481106114bd576114bc6132ec565b5b015460d860003373ffffffffffffffffffffffffffffffffffffffff1673ffffffffffffffffffffffffffffffffffffffff16815260200190815260200160002054611509919061334a565b61151391906133bb565b91506116aa565b630163f50060d960003373ffffffffffffffffffffffffffffffffffffffff1673ffffffffffffffffffffffffffffffffffffffff16815260200190815260200160002054611569919061349d565b81106115e357606460d4600260048110611586576115856132ec565b5b015460d860003373ffffffffffffffffffffffffffffffffffffffff1673ffffffffffffffffffffffffffffffffffffffff168152602001908152602001600020546115d2919061334a565b6115dc91906133bb565b91506116a9565b6301da9c0060d960003373ffffffffffffffffffffffffffffffffffffffff1673ffffffffffffffffffffffffffffffffffffffff16815260200190815260200160002054611632919061349d565b81106116a857606460d460036004811061164f5761164e6132ec565b5b015460d860003373ffffffffffffffffffffffffffffffffffffffff1673ffffffffffffffffffffffffffffffffffffffff1681526020019081526020016000205461169b919061334a565b6116a591906133bb565b91505b5b5b5b600082116116ee576040517f08c379a00000000000000000000000000000000000000000000000000000000081526004016116e5906138e4565b60405180910390fd5b8160da60003373ffffffffffffffffffffffffffffffffffffffff1673ffffffffffffffffffffffffffffffffffffffff168152602001908152602001600020600082825461173d919061349d565b9250508190555060cb60009054906101000a900473ffffffffffffffffffffffffffffffffffffffff1673ffffffffffffffffffffffffffffffffffffffff166323b872dd60ca60009054906101000a900473ffffffffffffffffffffffffffffffffffffffff1633670de0b6b3a7640000866117ba919061334a565b6040518463ffffffff1660e01b81526004016117d8939291906134d1565b6020604051808303816000875af11580156117f7573d6000803e3d6000fd5b505050506040513d601f19601f8201168201806040525081019061181b9190613534565b503373ffffffffffffffffffffffffffffffffffffffff167f9923b4306c6c030f2bdfbf156517d5983b87e15b96176da122cd4f2effa4ba7b8342604051611864929190613904565b60405180910390a250505050611878612b7d565b565b60db6020528060005260406000206000915090505481565b6000609760009054906101000a900460ff16905090565b60da6020528060005260406000206000915090505481565b6118c961291f565b6118d36000612b87565b565b60dd60009054906101000a900473ffffffffffffffffffffffffffffffffffffffff1681565b60008060d060dd60159054906101000a900460ff1660038111156119225761192161321e565b5b60048110611933576119326132ec565b5b01549050600064e8d4a51000828561194b919061334a565b61195591906133bb565b90508092505050919050565b61196961291f565b8060cc836004811061197e5761197d6132ec565b5b01819055505050565b61198f61291f565b60c960009054906101000a900473ffffffffffffffffffffffffffffffffffffffff16600073ffffffffffffffffffffffffffffffffffffffff168173ffffffffffffffffffffffffffffffffffffffff1603611a21576040517f08c379a0000000000000000000000000000000000000000000000000000000008152600401611a189061363f565b60405180910390fd5b8160c960006101000a81548173ffffffffffffffffffffffffffffffffffffffff021916908373ffffffffffffffffffffffffffffffffffffffff1602179055505050565b600060db600060dd60159054906101000a900460ff166003811115611a8e57611a8d61321e565b5b81526020019081526020016000205460cc60dd60159054906101000a900460ff166003811115611ac157611ac061321e565b5b60048110611ad257611ad16132ec565b5b0154611ade9190613469565b905090565b6000603360009054906101000a900473ffffffffffffffffffffffffffffffffffffffff16905090565b60008060d060dd60159054906101000a900460ff166003811115611b3457611b3361321e565b5b60048110611b4557611b446132ec565b5b01549050600060dd60009054906101000a900473ffffffffffffffffffffffffffffffffffffffff1673ffffffffffffffffffffffffffffffffffffffff1663feaf968c6040518163ffffffff1660e01b815260040160a060405180830381865afa158015611bb8573d6000803e3d6000fd5b505050506040513d601f19601f82011682018060405250810190611bdc91906139ba565b50505091505060006402540be40082611bf5919061334a565b670de0b6b3a76400008487611c0a919061334a565b611c14919061334a565b611c1e91906133bb565b9050809350505050919050565b611c3361291f565b8060d08360048110611c4857611c476132ec565b5b01819055507f945c1c4e99aa89f648fbfe3df471b916f719e16d960fcec0737d4d56bd6968388282604051611c7e929190613904565b60405180910390a15050565b60cb60009054906101000a900473ffffffffffffffffffffffffffffffffffffffff1681565b611cb861291f565b611cc0612c4d565b565b60d48160048110611cd257600080fd5b016000915090505481565b60dd60159054906101000a900460ff1681565b611cf8612b2e565b611d00612cb0565b60008111611d43576040517f08c379a0000000000000000000000000000000000000000000000000000000008152600401611d3a90613a81565b60405180910390fd5b611d4b611a66565b811115611d8d576040517f08c379a0000000000000000000000000000000000000000000000000000000008152600401611d8490613aed565b60405180910390fd5b6000611d98826118fb565b90508160db600060dd60159054906101000a900460ff166003811115611dc157611dc061321e565b5b81526020019081526020016000206000828254611dde919061349d565b925050819055508160d860003373ffffffffffffffffffffffffffffffffffffffff1673ffffffffffffffffffffffffffffffffffffffff1681526020019081526020016000206000828254611e34919061349d565b92505081905550600060d960003373ffffffffffffffffffffffffffffffffffffffff1673ffffffffffffffffffffffffffffffffffffffff1681526020019081526020016000205403611ec7574260d960003373ffffffffffffffffffffffffffffffffffffffff1673ffffffffffffffffffffffffffffffffffffffff168152602001908152602001600020819055505b8060dc60009054906101000a900473ffffffffffffffffffffffffffffffffffffffff1673ffffffffffffffffffffffffffffffffffffffff1663dd62ed3e33306040518363ffffffff1660e01b8152600401611f25929190613b0d565b602060405180830381865afa158015611f42573d6000803e3d6000fd5b505050506040513d601f19601f82011682018060405250810190611f669190613b36565b1015611fa7576040517f08c379a0000000000000000000000000000000000000000000000000000000008152600401611f9e90613baf565b60405180910390fd5b8060dc60009054906101000a900473ffffffffffffffffffffffffffffffffffffffff1673ffffffffffffffffffffffffffffffffffffffff166370a08231336040518263ffffffff1660e01b81526004016120039190613203565b602060405180830381865afa158015612020573d6000803e3d6000fd5b505050506040513d601f19601f820116820180604052508101906120449190613b36565b1015612085576040517f08c379a000000000000000000000000000000000000000000000000000000000815260040161207c90613c1b565b60405180910390fd5b60dc60009054906101000a900473ffffffffffffffffffffffffffffffffffffffff1673ffffffffffffffffffffffffffffffffffffffff166323b872dd3360c960009054906101000a900473ffffffffffffffffffffffffffffffffffffffff16846040518463ffffffff1660e01b8152600401612106939291906134d1565b6020604051808303816000875af1158015612125573d6000803e3d6000fd5b505050506040513d601f19601f820116820180604052508101906121499190613534565b503373ffffffffffffffffffffffffffffffffffffffff167f28cab0d660ed8aedd61a8c9db00b97f6a2d67e07d87795994f440b18bc5f1aa38342604051612192929190613904565b60405180910390a2506121a3612b7d565b50565b60dd60149054906101000a900460ff1681565b60008060d060dd60159054906101000a900460ff1660038111156121e0576121df61321e565b5b600481106121f1576121f06132ec565b5b01549050600060dd60009054906101000a900473ffffffffffffffffffffffffffffffffffffffff1673ffffffffffffffffffffffffffffffffffffffff1663feaf968c6040518163ffffffff1660e01b815260040160a060405180830381865afa158015612264573d6000803e3d6000fd5b505050506040513d601f19601f8201168201806040525081019061228891906139ba565b5050509150506000670de0b6b3a7640000836122a4919061334a565b6402540be40083876122b6919061334a565b6122c0919061334a565b6122ca91906133bb565b9050809350505050919050565b6122df61291f565b6064811115612323576040517f08c379a000000000000000000000000000000000000000000000000000000000815260040161231a90613cad565b60405180910390fd5b8060d48360048110612338576123376132ec565b5b01819055505050565b61234961291f565b600160dd60146101000a81548160ff0219169083151502179055507ff864daa2fad5ed4d2ac0634bf3343881cbc3662b641070d15f15e63ff35a9d2a60dd60149054906101000a900460ff166040516123a2919061311f565b60405180910390a1565b6123b461291f565b80600073ffffffffffffffffffffffffffffffffffffffff168173ffffffffffffffffffffffffffffffffffffffff1603612424576040517f08c379a000000000000000000000000000000000000000000000000000000000815260040161241b9061363f565b60405180910390fd5b8160ca60006101000a81548173ffffffffffffffffffffffffffffffffffffffff021916908373ffffffffffffffffffffffffffffffffffffffff1602179055505050565b61247161291f565b600073ffffffffffffffffffffffffffffffffffffffff168173ffffffffffffffffffffffffffffffffffffffff16036124e0576040517f08c379a00000000000000000000000000000000000000000000000000000000081526004016124d790613d3f565b60405180910390fd5b6124e981612b87565b50565b6124f4612b2e565b6124fc612cb0565b6000811161253f576040517f08c379a000000000000000000000000000000000000000000000000000000000815260040161253690613a81565b60405180910390fd5b612547611a66565b811115612589576040517f08c379a000000000000000000000000000000000000000000000000000000000815260040161258090613aed565b60405180910390fd5b600061259482611b0d565b9050803410156125d9576040517f08c379a00000000000000000000000000000000000000000000000000000000081526004016125d090613dab565b60405180910390fd5b600081346125e79190613469565b905060008111156126a05760003373ffffffffffffffffffffffffffffffffffffffff168260405161261890613dfc565b60006040518083038185875af1925050503d8060008114612655576040519150601f19603f3d011682016040523d82523d6000602084013e61265a565b606091505b505090508061269e576040517f08c379a000000000000000000000000000000000000000000000000000000000815260040161269590613e83565b60405180910390fd5b505b8260db600060dd60159054906101000a900460ff1660038111156126c7576126c661321e565b5b815260200190815260200160002060008282546126e4919061349d565b925050819055508260d860003373ffffffffffffffffffffffffffffffffffffffff1673ffffffffffffffffffffffffffffffffffffffff168152602001908152602001600020600082825461273a919061349d565b92505081905550600060d960003373ffffffffffffffffffffffffffffffffffffffff1673ffffffffffffffffffffffffffffffffffffffff16815260200190815260200160002054036127cd574260d960003373ffffffffffffffffffffffffffffffffffffffff1673ffffffffffffffffffffffffffffffffffffffff168152602001908152602001600020819055505b600060c960009054906101000a900473ffffffffffffffffffffffffffffffffffffffff1673ffffffffffffffffffffffffffffffffffffffff168360405161281590613dfc565b60006040518083038185875af1925050503d8060008114612852576040519150601f19603f3d011682016040523d82523d6000602084013e612857565b606091505b505090508061289b576040517f08c379a000000000000000000000000000000000000000000000000000000000815260040161289290613e83565b60405180910390fd5b3373ffffffffffffffffffffffffffffffffffffffff167f28cab0d660ed8aedd61a8c9db00b97f6a2d67e07d87795994f440b18bc5f1aa385426040516128e3929190613904565b60405180910390a25050506128f6612b7d565b50565b60dc60009054906101000a900473ffffffffffffffffffffffffffffffffffffffff1681565b612927612cfa565b73ffffffffffffffffffffffffffffffffffffffff16612945611ae3565b73ffffffffffffffffffffffffffffffffffffffff161461299b576040517f08c379a000000000000000000000000000000000000000000000000000000000815260040161299290613eef565b60405180910390fd5b565b6129a5612cb0565b6001609760006101000a81548160ff0219169083151502179055507f62e78cea01bee320cd4e420270b5ea74000d11b0c9f74754ebdbfc544b05a2586129e9612cfa565b6040516129f69190613203565b60405180910390a1565b6000808273ffffffffffffffffffffffffffffffffffffffff163b119050919050565b600060019054906101000a900460ff16612a72576040517f08c379a0000000000000000000000000000000000000000000000000000000008152600401612a6990613f81565b60405180910390fd5b612a7a612d02565b565b600060019054906101000a900460ff16612acb576040517f08c379a0000000000000000000000000000000000000000000000000000000008152600401612ac290613f81565b60405180910390fd5b612ad3612d63565b565b600060019054906101000a900460ff16612b24576040517f08c379a0000000000000000000000000000000000000000000000000000000008152600401612b1b90613f81565b60405180910390fd5b612b2c612dbc565b565b600260655403612b73576040517f08c379a0000000000000000000000000000000000000000000000000000000008152600401612b6a90613fed565b60405180910390fd5b6002606581905550565b6001606581905550565b6000603360009054906101000a900473ffffffffffffffffffffffffffffffffffffffff16905081603360006101000a81548173ffffffffffffffffffffffffffffffffffffffff021916908373ffffffffffffffffffffffffffffffffffffffff1602179055508173ffffffffffffffffffffffffffffffffffffffff168173ffffffffffffffffffffffffffffffffffffffff167f8be0079c531659141344cd1fd0a4f28419497f9722a3daafe3b4186f6b6457e060405160405180910390a35050565b612c55612e28565b6000609760006101000a81548160ff0219169083151502179055507f5db9ee0a495bf2e6ff9c91a7834c1ba4fdd244a5e8aa4e537bd38aeae4b073aa612c99612cfa565b604051612ca69190613203565b60405180910390a1565b612cb8611892565b15612cf8576040517f08c379a0000000000000000000000000000000000000000000000000000000008152600401612cef90614059565b60405180910390fd5b565b600033905090565b600060019054906101000a900460ff16612d51576040517f08c379a0000000000000000000000000000000000000000000000000000000008152600401612d4890613f81565b60405180910390fd5b612d61612d5c612cfa565b612b87565b565b600060019054906101000a900460ff16612db2576040517f08c379a0000000000000000000000000000000000000000000000000000000008152600401612da990613f81565b60405180910390fd5b6001606581905550565b600060019054906101000a900460ff16612e0b576040517f08c379a0000000000000000000000000000000000000000000000000000000008152600401612e0290613f81565b60405180910390fd5b6000609760006101000a81548160ff021916908315150217905550565b612e30611892565b612e6f576040517f08c379a0000000000000000000000000000000000000000000000000000000008152600401612e66906140c5565b60405180910390fd5b565b8260048101928215612ea8579160200282015b82811115612ea7578251829063ffffffff16905591602001919060010190612e84565b5b509050612eb59190612f4a565b5090565b8260048101928215612ef4579160200282015b82811115612ef3578251829067ffffffffffffffff16905591602001919060010190612ecc565b5b509050612f019190612f4a565b5090565b8260048101928215612f39579160200282015b82811115612f38578251829060ff16905591602001919060010190612f18565b5b509050612f469190612f4a565b5090565b5b80821115612f63576000816000905550600101612f4b565b5090565b600080fd5b6000819050919050565b612f7f81612f6c565b8114612f8a57600080fd5b50565b600081359050612f9c81612f76565b92915050565b600060208284031215612fb857612fb7612f67565b5b6000612fc684828501612f8d565b91505092915050565b612fd881612f6c565b82525050565b6000602082019050612ff36000830184612fcf565b92915050565b600073ffffffffffffffffffffffffffffffffffffffff82169050919050565b600061302482612ff9565b9050919050565b61303481613019565b811461303f57600080fd5b50565b6000813590506130518161302b565b92915050565b60006020828403121561306d5761306c612f67565b5b600061307b84828501613042565b91505092915050565b6000806040838503121561309b5761309a612f67565b5b60006130a985828601612f8d565b92505060206130ba85828601613042565b9150509250929050565b600080604083850312156130db576130da612f67565b5b60006130e985828601613042565b92505060206130fa85828601613042565b9150509250929050565b60008115159050919050565b61311981613104565b82525050565b60006020820190506131346000830184613110565b92915050565b6000819050919050565b600061315f61315a61315584612ff9565b61313a565b612ff9565b9050919050565b600061317182613144565b9050919050565b600061318382613166565b9050919050565b61319381613178565b82525050565b60006020820190506131ae600083018461318a565b92915050565b600080604083850312156131cb576131ca612f67565b5b60006131d985828601612f8d565b92505060206131ea85828601612f8d565b9150509250929050565b6131fd81613019565b82525050565b600060208201905061321860008301846131f4565b92915050565b7f4e487b7100000000000000000000000000000000000000000000000000000000600052602160045260246000fd5b6004811061325e5761325d61321e565b5b50565b600081905061326f8261324d565b919050565b600061327f82613261565b9050919050565b61328f81613274565b82525050565b60006020820190506132aa6000830184613286565b92915050565b60006132bb82613166565b9050919050565b6132cb816132b0565b82525050565b60006020820190506132e660008301846132c2565b92915050565b7f4e487b7100000000000000000000000000000000000000000000000000000000600052603260045260246000fd5b7f4e487b7100000000000000000000000000000000000000000000000000000000600052601160045260246000fd5b600061335582612f6c565b915061336083612f6c565b925082820261336e81612f6c565b915082820484148315176133855761338461331b565b5b5092915050565b7f4e487b7100000000000000000000000000000000000000000000000000000000600052601260045260246000fd5b60006133c682612f6c565b91506133d183612f6c565b9250826133e1576133e061338c565b5b828204905092915050565b600082825260208201905092915050565b7f496e76616c6964207374616765207472616e736974696f6e2e00000000000000600082015250565b60006134336019836133ec565b915061343e826133fd565b602082019050919050565b6000602082019050818103600083015261346281613426565b9050919050565b600061347482612f6c565b915061347f83612f6c565b92508282039050818111156134975761349661331b565b5b92915050565b60006134a882612f6c565b91506134b383612f6c565b92508282019050808211156134cb576134ca61331b565b5b92915050565b60006060820190506134e660008301866131f4565b6134f360208301856131f4565b6135006040830184612fcf565b949350505050565b61351181613104565b811461351c57600080fd5b50565b60008151905061352e81613508565b92915050565b60006020828403121561354a57613549612f67565b5b60006135588482850161351f565b91505092915050565b7f496e697469616c697a61626c653a20636f6e747261637420697320616c72656160008201527f647920696e697469616c697a6564000000000000000000000000000000000000602082015250565b60006135bd602e836133ec565b91506135c882613561565b604082019050919050565b600060208201905081810360008301526135ec816135b0565b9050919050565b7f416464726573732063616e2774206265207a65726f0000000000000000000000600082015250565b60006136296015836133ec565b9150613634826135f3565b602082019050919050565b600060208201905081810360008301526136588161361c565b9050919050565b6000819050919050565b600060ff82169050919050565b600061369161368c6136878461365f565b61313a565b613669565b9050919050565b6136a181613676565b82525050565b60006020820190506136bc6000830184613698565b92915050565b7f436c61696d696e67206973206e6f7420616374697665207965742e0000000000600082015250565b60006136f8601b836133ec565b9150613703826136c2565b602082019050919050565b60006020820190508181036000830152613727816136eb565b9050919050565b7f4e6f7420656e6f7567682074696d6520686173207061737365642e0000000000600082015250565b6000613764601b836133ec565b915061376f8261372e565b602082019050919050565b6000602082019050818103600083015261379381613757565b9050919050565b7f596f752068617665206e6f7420626f7567687420616e7920746f6b656e732e00600082015250565b60006137d0601f836133ec565b91506137db8261379a565b602082019050919050565b600060208201905081810360008301526137ff816137c3565b9050919050565b7f596f75206861766520616c726561647920636c61696d656420796f757220746f60008201527f6b656e732e000000000000000000000000000000000000000000000000000000602082015250565b60006138626025836133ec565b915061386d82613806565b604082019050919050565b6000602082019050818103600083015261389181613855565b9050919050565b7f4e6f20746f6b656e7320746f20636c61696d2e00000000000000000000000000600082015250565b60006138ce6013836133ec565b91506138d982613898565b602082019050919050565b600060208201905081810360008301526138fd816138c1565b9050919050565b60006040820190506139196000830185612fcf565b6139266020830184612fcf565b9392505050565b600069ffffffffffffffffffff82169050919050565b61394c8161392d565b811461395757600080fd5b50565b60008151905061396981613943565b92915050565b6000819050919050565b6139828161396f565b811461398d57600080fd5b50565b60008151905061399f81613979565b92915050565b6000815190506139b481612f76565b92915050565b600080600080600060a086880312156139d6576139d5612f67565b5b60006139e48882890161395a565b95505060206139f588828901613990565b9450506040613a06888289016139a5565b9350506060613a17888289016139a5565b9250506080613a288882890161395a565b9150509295509295909350565b7f43616e6e6f7420627579207a65726f20746f6b656e732e000000000000000000600082015250565b6000613a6b6017836133ec565b9150613a7682613a35565b602082019050919050565b60006020820190508181036000830152613a9a81613a5e565b9050919050565b7f496e73756666696369656e7420746f6b656e7320617661696c61626c652e0000600082015250565b6000613ad7601e836133ec565b9150613ae282613aa1565b602082019050919050565b60006020820190508181036000830152613b0681613aca565b9050919050565b6000604082019050613b2260008301856131f4565b613b2f60208301846131f4565b9392505050565b600060208284031215613b4c57613b4b612f67565b5b6000613b5a848285016139a5565b91505092915050565b7f4e6f7420656e6f75676820616c6c6f77616e6365000000000000000000000000600082015250565b6000613b996014836133ec565b9150613ba482613b63565b602082019050919050565b60006020820190508181036000830152613bc881613b8c565b9050919050565b7f4e6f7420656e6f7567682062616c616e63650000000000000000000000000000600082015250565b6000613c056012836133ec565b9150613c1082613bcf565b602082019050919050565b60006020820190508181036000830152613c3481613bf8565b9050919050565b7f50657263656e746167652063616e6e6f7420626520677265617465722074686160008201527f6e20313030000000000000000000000000000000000000000000000000000000602082015250565b6000613c976025836133ec565b9150613ca282613c3b565b604082019050919050565b60006020820190508181036000830152613cc681613c8a565b9050919050565b7f4f776e61626c653a206e6577206f776e657220697320746865207a65726f206160008201527f6464726573730000000000000000000000000000000000000000000000000000602082015250565b6000613d296026836133ec565b9150613d3482613ccd565b604082019050919050565b60006020820190508181036000830152613d5881613d1c565b9050919050565b7f4e6f7420656e6f756768204554482073656e742e000000000000000000000000600082015250565b6000613d956014836133ec565b9150613da082613d5f565b602082019050919050565b60006020820190508181036000830152613dc481613d88565b9050919050565b600081905092915050565b50565b6000613de6600083613dcb565b9150613df182613dd6565b600082019050919050565b6000613e0782613dd9565b9150819050919050565b7f4661696c656420746f2073656e642045544820746f2066756e6473206164647260008201527f6573732e00000000000000000000000000000000000000000000000000000000602082015250565b6000613e6d6024836133ec565b9150613e7882613e11565b604082019050919050565b60006020820190508181036000830152613e9c81613e60565b9050919050565b7f4f776e61626c653a2063616c6c6572206973206e6f7420746865206f776e6572600082015250565b6000613ed96020836133ec565b9150613ee482613ea3565b602082019050919050565b60006020820190508181036000830152613f0881613ecc565b9050919050565b7f496e697469616c697a61626c653a20636f6e7472616374206973206e6f74206960008201527f6e697469616c697a696e67000000000000000000000000000000000000000000602082015250565b6000613f6b602b836133ec565b9150613f7682613f0f565b604082019050919050565b60006020820190508181036000830152613f9a81613f5e565b9050919050565b7f5265656e7472616e637947756172643a207265656e7472616e742063616c6c00600082015250565b6000613fd7601f836133ec565b9150613fe282613fa1565b602082019050919050565b6000602082019050818103600083015261400681613fca565b9050919050565b7f5061757361626c653a2070617573656400000000000000000000000000000000600082015250565b60006140436010836133ec565b915061404e8261400d565b602082019050919050565b6000602082019050818103600083015261407281614036565b9050919050565b7f5061757361626c653a206e6f7420706175736564000000000000000000000000600082015250565b60006140af6014836133ec565b91506140ba82614079565b602082019050919050565b600060208201905081810360008301526140de816140a2565b905091905056fea2646970667358221220fbb1cfb572abdd87199b212413d3d3f7e8e7008151afed1a09fbc08d6e0f2ef164736f6c63430008110033",
	"linkReferences": {},
	"deployedLinkReferences": {}
}